:020000040800F2
:10000000600400209D010008FD010008FD010008BA
:10001000FD010008FD010008FD01000800000000CE
:10002000000000000000000000000000FD010008CA
:10003000FD01000800000000FD010008FD010008AE
:10004000FD010008FD010008FD010008FD01000898
:10005000FD010008FD010008FD010008FD01000888
:10006000FD010008FD010008FD010008FD01000878
:10007000FD010008FD010008FD010008FD01000868
:10008000FD010008FD010008FD010008000000005E
:10009000000000000000000000000000FD0100085A
:1000A000FD010008FD010008FD010008FD01000838
:1000B000FD010008FD010008FD010008FD01000828
:1000C000FD010008FD010008FD010008FD01000818
:1000D000FD010008FD010008FD010008FD01000808
:1000E000FD010008FD010008FD01000800000000FE
:1000F0000000000000000000000000000000000000
:1001000000000000000000000000000000000000EF
:100110000000000000000000FD010008FD010008D3
:100120005FF808F180B588B000AF786007F1080388
:10013000184600F091FCFA68084BA3FB02135B0B16
:100140007A6802FB03F3FB6102E0FB69013BFB61A0
:10015000FB69002BF9D12037BD4680BD5917B7D1B7
:1001600080B588B000AF786007F10803184600F04A
:1001700073FCFA68084BA3FB02139B0D7A6802FB21
:1001800003F3FB6102E0FB69013BFB61FB69002BB0
:10019000F9D12037BD4680BD6BCA5F6B80B582B098
:1001A00000AF114B7B60114B3B6007E03B681A1DB1
:1001B0003A607A68111D796012681A603A680C4BCF
:1001C0009A42F3D30B480C494FF000028842B8BF63
:1001D00040F8042BFFF6FAAF00F014F800F00AFC28
:1001E0000837BD4680BD00BF041100080000002094
:1001F00044000020440000206000002080B400AFD4
:10020000FEE700BF80B500AF164B164A126842F0F9
:1002100001021A60134A134B5968134B0B40536089
:10022000104A104B1B6823F0847323F4803313604F
:100230000C4B0C4A126822F480221A60094B094ABE
:10024000526822F4FE025A60064B4FF41F029A6075
:10025000044B0022DA6200F00BF8044B4FF000620E
:100260009A6080BD001002400000FFF800ED00E041
:1002700080B500AF00F002F880BD00BF80B483B04D
:1002800000AF00237B6000233B60304B2F4A126895
:1002900042F480321A602D4B1B6803F400333B603C
:1002A0007B6801337B603B68002B03D17B68B3F52F
:1002B000A06FF0D1254B1B6803F40033002B02D054
:1002C00001233B6001E000233B603B68012B37D1F9
:1002D0001E4B1E4A52685A601C4B1C4A52685A6098
:1002E0001A4B1A4A52685A60184B184A526822F43C
:1002F0007C125A60154B154A526842F498125A60A3
:10030000124B124A126842F080721A6000BF0F4B03
:100310001B6803F00073002BF9D00C4B0B4A52689A
:1003200022F003025A60094B084A526842F0020266
:100330005A6000BF054B5B6803F00C03082BF9D132
:100340000C37BD465DF8047B704700BF00100240CB
:1003500080B582B000AF0346FB71FB7918460121DE
:1003600000F01CF90837BD4680BD00BF80B582B0E3
:1003700000AF13460246FA710A46BA717B710D4B03
:10038000FA791A700B4BBA795A710A4B7A799A71C9
:10039000084B0022DA7100F049FC064B00225A702B
:1003A000BA797B791046194600F006F80837BD4641
:1003B00080BD00BF4400002080B582B000AF02467F
:1003C0000B46FA71BB71BB79012B06D9254B5B78C3
:1003D00043F00803DAB2234B5A70224BBA791A71F0
:1003E0003220FFF79FFE1F4BDB79184600F006F91D
:1003F0004FF47A70FFF796FE302000F0EFF841F2EC
:100400009410FFF7ADFE302000F0E8F841F29410B0
:10041000FFF7A6FE302000F0E1F89620FFF7A0FEDF
:10042000202000F0DBF80F4B5B7843F02003DBB2B9
:10043000184600F0A5F80B4B04229A7000F058F80B
:1004400000F012F8074B0222DA70064BDB7843F01B
:100450000403DBB2184600F093F800F00FF80837F9
:10046000BD4680BD4400002080B500AF012000F0F3
:1004700087F840F6B830FFF773FE80BD80B500AF57
:10048000022000F07DF840F6B830FFF769FE80BD2D
:1004900090B587B000AF02460B46FA71BB71124BA4
:1004A00007F108040FCB84E80F00104B1B79BA79D1
:1004B0009A4203D90D4B1B79013BBB71BB799B0061
:1004C00007F11802134453F8103CDAB2FB791344D5
:1004D000DBB2DBB263F07F03DBB2DBB2184600F0C5
:1004E0004FF81C37BD4690BDD810000844000020CE
:1004F00080B500AF074B9B7843F00403DAB2054B9D
:100500009A70044B9B7843F00803DBB2184600F066
:1005100037F880BD4400002080B584B000AF0346AA
:100520003960FB71FB7903F00703FB71FB79DB009A
:10053000DBB243F04003DBB2DBB2184600F020F838
:100540000023FB6009E0FB683A6813441B781846F7
:10055000FFF7FEFEFB680133FB60FB68072BF2DD53
:100560001037BD4680BD00BF80B500AF034B0822E9
:10057000DA71002000F042F880BD00BF4400002086
:1005800080B582B000AF0346FB71FB7918460021AD
:1005900000F004F80837BD4680BD00BF80B584B0C8
:1005A00000AF02460B46FA71BB71FB7923F00F03D3
:1005B000FB73FB791B01BB73FA7BBB791343DBB283
:1005C000184600F00BF8BA7BBB791343DBB2184630
:1005D00000F004F81037BD4680BD00BF80B582B082
:1005E00000AF0346FB71FB79184600F007F8FB7972
:1005F000184600F023F80837BD4680BD80B582B0AC
:1006000000AF0346FB710B4B1B780B4800211A46C9
:1006100000F050FB074BDA79FB791343DBB2064855
:10062000194600F08DFB0448012100F0A3FC0837B7
:10063000BD4680BD440000200054004080B582B01B
:1006400000AF0346FB71FB7943F00403DBB21846AD
:10065000FFF7D4FF0120FFF783FDFB7923F00403AC
:10066000DBB21846FFF7CAFF3220FFF779FD0837E3
:10067000BD4680BD80B584B000AF78600023FB73B9
:1006800009E0FB7B7A6813441B781846FFF760FE8D
:10069000FB7B0133FB73FB7B7A6813441B78002BD5
:1006A000EFD11037BD4680BD80B489B000AF78600F
:1006B00039600023FB6100233B610023BB61002301
:1006C000FB6000237B610023BB603B68DB7803F0A9
:1006D0000F03FB613B68DB7803F01003002B04D0B1
:1006E0003B689B78FA691343FB613B681B88DBB26C
:1006F000002B44D07B681B687B610023BB6138E022
:10070000BB69012202FA03F3FB603B681B881A46AF
:10071000FB6813403B613A69FB689A4226D1BB698A
:100720009B00FB60FB680F2202FA03F3BB60BB680F
:10073000DB437A6913407B61FB68FA6902FA03F3D1
:100740007A6913437B613B68DB78282B05D1BB6951
:1007500001229A407B685A6108E03B68DB78482BAD
:1007600004D1BB6901229A407B681A61BB690133DD
:10077000BB61BB69072BC3D97B687A691A603B6888
:100780001B88FF2B46D97B685B687B610023BB61BC
:100790003AE0BB690833012202FA03F3FB603B68CD
:1007A0001B881A46FB6813403B613A69FB689A4212
:1007B00027D1BB699B00FB60FB680F2202FA03F3A1
:1007C000BB60BB68DB437A6913407B61FB68FA69F5
:1007D00002FA03F37A6913437B613B68DB78282BC9
:1007E00005D1BB69083301229A407B685A613B6896
:1007F000DB78482B05D1BB69083301229A407B681E
:100800001A61BB690133BB61BB69072BC1D97B6826
:100810007A695A602437BD465DF8047B704700BF93
:1008200080B485B000AF78607B68FB6002E0FB6855
:100830000133FB60FB681B78002BF8D1FA687B68FA
:10084000D31A18461437BD465DF8047B704700BFC5
:1008500080B584B000AF78607B68002B03D07B68E4
:100860001B78002B01D17B682DE07B68FB607868EA
:10087000FFF7D6FF0346013B7A681344BB601DE0D7
:10088000FB681A78BB681B785340DAB2FB681A70B1
:10089000BB681A78FB681B785340DAB2BB681A70E1
:1008A000FB681A78BB681B785340DAB2FB681A7091
:1008B000FB680133FB60BB68013BBB60BA68FB6847
:1008C0009A42DDD87B6818461037BD4680BD00BF10
:1008D00080B586B000AFF860B9607A6000237B61B4
:1008E000FB683B613B69002B02DAFB685B42FB6003
:1008F0007B695A1C7A61BA681A44FB68796893FB71
:10090000F1F1786800FB01F15B1A1149CB5C1370BF
:10091000FA687B6892FBF3F3FB60FB68002BE7DC73
:100920003B69002B06DA7B695A1C7A61BA6813446A
:100930002D221A707B69BA68134400221A70B868B5
:10094000FFF786FF034618461837BD4680BD00BF37
:100950000800002080B586B000AF0023FB75FFF7CC
:1009600083FD00200021FFF793FDFA7D3B1D10461B
:1009700019460A22FFF7ACFF1C48FFF77BFE3B1D20
:100980001846FFF777FEFB7D03F113023B1D10466F
:1009900019460A22FFF79CFF1548FFF76BFE3B1D27
:1009A0001846FFF767FE00200121FFF771FD0023C5
:1009B0003B610AE03B69DAB2FB7D1344DBB21846C7
:1009C000FFF7C6FC3B6901333B613B69132BF1DD4B
:1009D000FB7D1033FB75FB7D0E2B04D94FF47A7031
:1009E000FFF7A0FBBBE71837BD4680BDE810000845
:1009F000F010000880B500AF4FF47A70FFF792FB5B
:100A0000272010210222FFF7B1FCFFF72DFDFFF791
:100A1000ABFD4FF47A70FFF785FBFFF725FDFFF77D
:100A200099FF4FF47A70FFF77DFB00200849FFF72C
:100A300073FDFFF719FD0748FFF71CFE0020012199
:100A4000FFF726FD0020FFF783FC184680BD00BF9E
:100A500000000020F410000880B489B000AF786076
:100A60000023FB610023BB6100237B6100233B610A
:100A70000023FB604A4B5B6803F00C03FB61FB69DE
:100A8000042B07D0082B09D0002B2FD17B68454AB7
:100A90001A602FE07B68434A1A602BE0404B5B688A
:100AA00003F47013BB613E4B5B6803F480337B61DE
:100AB000BB699B0C0233BB617B69002B06D1BB6910
:100AC000394A02FB03F27B681A6013E0344BDB6A9D
:100AD00003F00F030133FB60324AFB68B2FBF3F310
:100AE000BA6902FB03F27B681A6003E07B682D4A57
:100AF0001A6000BF2A4B5B6803F0F003FB61FB69DF
:100B00001B09FB61294AFB6913441B78DBB23B617B
:100B10007B681A683B69DA407B685A60204B5B68E7
:100B200003F4E063FB61FB691B0AFB611F4AFB697D
:100B300013441B78DBB23B617B685A683B69DA403F
:100B40007B689A60164B5B6803F46053FB61FB693A
:100B5000DB0AFB61154AFB6913441B78DBB23B617E
:100B60007B685A683B69DA407B68DA600C4B5B68EB
:100B700003F44043FB61FB699B0BFB610C4AFB697F
:100B800013441B78DBB23B617B68DA683B69B2FBDC
:100B9000F3F27B681A612437BD465DF8047B704729
:100BA0000010024000127A0000093D0030000020D1
:100BB0004000002080B483B000AF78600B46FB702B
:100BC000FB78002B06D0094B084A91697A680A43E2
:100BD0009A6106E0054B054A91697A68D2430A405A
:100BE0009A610C37BD465DF8047B704700100240E7
:100BF00080B483B000AF78600B46FB70FB78002BAD
:100C000006D0094B084AD1697A680A43DA6106E0DE
:100C1000054B054AD1697A68D2430A40DA610C373C
:100C2000BD465DF8047B70470010024080B500AF00
:100C300008200121FFF7BEFF01200121FFF7BAFFC5
:100C40004FF400100121FFF7D3FF154B154A1A602E
:100C5000134B00229A80124B4BF6FF72DA80104B36
:100C600015221A810E4B4FF480625A810C4B4FF4BF
:100C700080429A810C480A4900F07AF80B4BC02256
:100C80001A800A4B1C22DA70084B03229A7008481B
:100C90000649FFF709FD0448012100F02BF980BD4A
:100CA0004C000020A0860100005400405C000020A1
:100CB000000C014080B582B000AF786013460A4650
:100CC000FA70BB7000BF78684FF4003100F0D0F9C3
:100CD0000346002BF7D17868012100F02BF900BF03
:100CE0007868144900F094F90346002BF8D0BB78DB
:100CF0005B00DAB2FB78786811461A4600F06AF9B0
:100D0000FB78002B07D100BF78680B4900F080F911
:100D10000346002BF8D0FB78012B07D100BF786881
:100D2000064900F075F90346002BF8D00837BD4698
:100D300080BD00BF01000300820007000200030025
:100D400080B582B000AF78600B46FB70FB787868A6
:100D5000194600F02FF900BF7868044900F058F9EF
:100D60000346002BF8D00837BD4680BD840007003D
:100D700080B58AB000AF786039600023FB8400231F
:100D80007B840423BB84574BFB617B689B88FB847B
:100D9000FB8C23F03F03FB8407F108031846FFF7A1
:100DA0005BFE3B69FB61FA694F4BA3FB02139B0C93
:100DB0007B84FA8C7B8C1343FB847B68FA8C9A804F
:100DC0007B681B889BB223F001039AB27B681A8070
:100DD0000023FB843B681A68444B9A4215D83B6851
:100DE0001B685B00FA69B2FBF3F3BB84BB8C032B7B
:100DF00001D80423BB84FA8CBB8C1343FB847B8C0B
:100E000001339AB27B681A8440E03B68DA884BF67B
:100E1000FF739A4209D13B681A6813465B0013447A
:100E2000FA69B2FBF3F3BB840EE03B681A68134621
:100E30009B0013449A001344FA69B2FBF3F3BB849A
:100E4000BB8C43F48043BB84BB8CC3F30B03002BEC
:100E500003D1BB8C43F00103BB84BA8CFB8C1343DE
:100E60009BB26FEA43436FEA5343FB847B8C4FF49E
:100E7000967202FB03F31E4A82FB03129211DB17E8
:100E8000D31A9BB201339AB27B681A847B68FA8CBE
:100E90009A837B681B889BB243F001039AB27B68FC
:100EA0001A807B681B88FB84FB8C23F4816323F00E
:100EB0000203FB843B689A883B685B8913439AB2C0
:100EC000FB8C1343FB847B68FA8C1A803B689A89FD
:100ED0003B681B8913439AB27B681A812837BD4649
:100EE00080BD00BF00127A0083DE1B43A086010094
:100EF000D34D621080B483B000AF78600B46FB70B6
:100F0000FB78002B08D07B681B889BB243F0010361
:100F10009AB27B681A8007E07B681B889BB223F03B
:100F200001039AB27B681A800C37BD465DF8047BDA
:100F3000704700BF80B483B000AF78600B46FB7091
:100F4000FB78002B08D07B681B889BB243F480732E
:100F50009AB27B681A8007E07B681B889BB223F4F7
:100F600080739AB27B681A800C37BD465DF8047BAB
:100F7000704700BF80B483B000AF78600B46FB7051
:100F8000FB78002B08D07B681B889BB243F400736E
:100F90009AB27B681A8007E07B681B889BB223F4B7
:100FA00000739AB27B681A800C37BD465DF8047BEB
:100FB000704700BF80B483B000AF78600B46FB7011
:100FC000FB789AB27B681A820C37BD465DF8047BC9
:100FD000704700BF80B483B000AF786013460A4604
:100FE000FA70BB70BB78002B04D0FB7843F0010390
:100FF000FB7003E0FB7823F00103FB70FB789AB2EF
:101000007B681A820C37BD465DF8047B704700BFD1
:1010100080B487B000AF7860396000233B61002363
:10102000FB600023BB600023FB757B689B8A9BB23F
:10103000FB607B681B8B9BB2BB60BB681B04BB6007
:10104000FA68BB68134323F07F433B613A693B680E
:101050001A403B689A4202D10123FB7501E000234C
:10106000FB75FB7D18461C37BD465DF8047B704759
:1010700080B487B000AF786039600023FB7500232F
:101080003B610023FB607B68FB603B681B0F3B619F
:101090003B6823F07F433B603B69002B03D0FB6838
:1010A0001433FB6005E03B681B0C3B60FB681833A6
:1010B000FB60FB681A683B681340002B02D00123D9
:1010C000FB7501E00023FB75FB7D18461C37BD4610
:1010D0005DF8047B704700BF000000004000000086
:1010E0001400000054000000436F64652030780055
:1010F0002D30780048656C6C6F204D6F75736520DE
:041100005E5F5E00D0
:10110400040E0E0E1F0004003031323334353637EE
:1011140038396162636465666768696A6B6C6D6EB1
:101124006F707172737475767778797A0000000045
:101134000000000001020304010203040607080979
:041144000204060893
:0400000508000000EF
:00000001FF
